:10000000400200201D080000190800001908000027
:1000100000000000000000000000000000000000E0
:1000200000000000000000000000000019080000AF
:10003000000000000000000019080000190800007E
:10004000190800001908000019080000190800002C
:10005000190800001908000019080000190800001C
:10006000190800001908000019080000190800000C
:1000700019080000190800001908000019080000FC
:1000800019080000190800001908000019080000EC
:1000900019080000190800001908000019080000DC
:1000A0001908000010B5064C2378002B07D1054B2A
:1000B000002B02D0044800E000BF0123237010BDD4
:1000C00004000020000000008C09000008B5084B67
:1000D000002B03D00748084900E000BF0748036829
:1000E000002B03D0064B002B00D0984708BDC0461C
:1000F000000000008C090000080000208C090000AE
:1001000000000000024BC046013B002BFBD17047B2
:10011000740E000038B5041E04DD034DA847013CF1
:10012000002CFBD138BDC0460501000070B5041E8F
:1001300008D0FA26B600044D301CA847013CA4B2F2
:10014000002CF9D170BDC0461501000010B5002982
:100150000ED14309DB0139495A181F2108400121FA
:1001600081401160364A8018C31800221A7063E07B
:10017000012910D14309DB0132495A181F210840D7
:100180000121814011602E4A8018C0180278042392
:100190001343037050E0022910D14309DB012949C0
:1001A0005A181F210840012181401160244A8018FB
:1001B000C01802780223134303703DE0052910D1D3
:1001C0004309DB011D495A181F21084001218140C4
:1001D00011601B4A8018C018027802231343037071
:1001E0002AE0032913D14309DB01164A99181F227B
:1001F0001040012282400A6011494018C01804785A
:1002000006212143017010495B181A6014E004298B
:1002100012D14309DB010B4A99181F221040012219
:1002200082400A6006494018C0180478062121431C
:10023000017006495B181A6010BDC04608440041B1
:10024000404400410444004118440041144400412A
:100250007047C0460C4B1B68002B10D1EFF3108386
:10026000002B09D172B6BFF35F8F0022074B1A70C3
:100270000122074B1A7002E00022054B1A70024B54
:100280001A6801321A607047200000200000002028
:1002900024000020084B1A68013A1A601B68002BE2
:1002A00009D1064B1B78002B05D00122044B1A7094
:1002B000BFF35F8F62B6704720000020240000204B
:1002C0000000002070B50C4B1C6A017885784078DE
:1002D0000122104080014026B44304432A40D0014B
:1002E00080229443221C0243032001400902034858
:1002F00002400A431A6270BD00080040FFFCFFFF85
:10030000F0B55F4656464D464446F0B4254A948AB9
:1003100045780378594259418A4683789C46C1788A
:10032000884603799946467B077B817B8B468068AC
:100330001D4B186101235146880004218C4304435E
:1003400048461840C00008218C43044340461840EA
:10035000000110218C4304436046184040012021D5
:100360008C430443181C384080014027BC4304439D
:10037000181C3040C0018026B443044307202840A5
:1003800000020A4D2C40044359460B40190308480B
:10039000231C03400B4393823CBC90469946A246E3
:1003A000AB46F0BD0008004028000020FFF8FFFF2A
:1003B000FFEFFFFF10B5254B9B691B051B0F022BA1
:1003C00009D8017A0902F82252011140827A1143B8
:1003D0001F4A516008E0017A8906090C428992059A
:1003E000920D11431A4A5160818842881143C479A1
:1003F0008279224311434278D2011143144A116099
:100400000278042A21D1022B0FD8027B1206F8238E
:100410005B051A40C1890904FF231B040B401A43E2
:10042000038A1A430A4B9A600AE0027B9206038A07
:100430001A43C3891B0407490B401A43044B9A60B3
:10044000034B196804220A431A6010BD00200041C2
:10045000280000200000FF0307283BD880001E4B27
:100460001B589F46002036E01C4B196A02220A43A3
:100470001A6200202FE0194B996902220A439A61FF
:10048000002028E0154B198A02220A431A82002014
:1004900021E0124B998A02220A439A8200201AE034
:1004A0000F4B196802220A431A601A680D4B1A4052
:1004B0000A4B9A84191C1022CB681A42FCD0084AB5
:1004C0009168064BD96251689962126892B29A8417
:1004D000002000E0172070474C0900000008004091
:1004E000280000207FFF0000F0B58FB0C222D200AC
:1004F000424B9A60424B5A681E218A4304210A43A8
:100500005A60022201AB1A7000243E4DE0B201A9EC
:10051000A84701341C2CF9D10AA80023037083706A
:10052000802212028260C3700122027103738373FE
:10053000022242704373344B98470520334B98474F
:100540002E490222CB681A42FCD02C4B998A802279
:100550000A439A8205A80023002543808380857181
:10056000C571072202723F23438104210170457047
:10057000B721C90001820273C381254B984704A8A3
:100580004570012686700570224B984706201F4F44
:10059000B847214B984701AC029665702572657289
:1005A000052323700120211C1C4B984701201C4B64
:1005B000984726700020211C124B98470020194BA9
:1005C00098470720B8470D49D022CB681340D02B5D
:1005D000FBD1154A002313725372937201A90122B1
:1005E0004A604B700B724B7207230B7000200B4B51
:1005F000984700200A4B98470FB0F0BD0008004014
:1006000000400041D507000001030000590400002C
:10061000B5030000C50200002D06000051060000D1
:10062000050700004907000000040040064B9969D7
:1006300008220A439A610122044B1A70191C0B7894
:100640001342FCD17047C04600040040000C00403B
:10065000F8B5061C071C0D782D0205434B78002BBE
:1006600002D08023DB021D434B7A002B02D0802373
:100670001B031D434C68012C17D9631E1C420FD16C
:10068000022C06D90223002201325B009C42FBD8D7
:1006900000E000221702374380235B031D4304E080
:1006A0002702374380239B021D430B7A002B02D085
:1006B00080239B031D430F4A53785BB2002BFBDB67
:1006C0000D4B98470D4B1E700A4A53785BB2002BB6
:1006D000FBDB084B9F601A1C53785BB2002BFBDBE3
:1006E000044B5968802252020A4015435D60044B56
:1006F0009847F8BD000C004055020000080C00406F
:100700009502000010B5041C0B4A53785BB2002B15
:10071000FBDB0A4B98470A4B1C70074A53785BB2C5
:10072000002BFBDB044B5968802252020A435A60BB
:10073000044B984710BDC046000C00405502000015
:10074000040C00409502000010B5041C064B9847AD
:10075000064B1C70064B59888022D2010A435A80EE
:10076000044B984710BDC04655020000020C0040E3
:10077000000C00409502000010B5041C0F4B984778
:100780000F4B1C700F4B58880005000F59880E4AFC
:100790000A405A8059880D4A0A405A80191C802202
:1007A000D2014B881342FCD1064B01025888064AFD
:1007B00002400A435A80064B984710BD550200007C
:1007C000020C0040000C0040FFF0FFFFFFBFFFFFE6
:1007D0009502000010B50C7824020443024B9847A0
:1007E000A4B2024B5C8010BD79070000000C0040F1
:1007F0007047C04608B5044B9847044B9847044BD4
:100800009847044B984708BDE904000051020000D6
:10081000F1070000F1070000FEE7C04610B5194BD4
:10082000194A9A4203D0194B164A9A4204D3184BDC
:10083000184A9A4210D31BE0174B14480330C01AD1
:1008400080080130800000230E490F4AD458CC5054
:1008500004338342FAD1EAE70E4B1A1D0C490331E7
:10086000891A890889005218002102C39342FCD1D9
:100870000A4B7F210A4A8A439A600A4B98470A4BDF
:100880009847FEE7000000208C09000004000020CB
:100890003C000020040000200400002000ED00E0E7
:1008A0000000000001090000B10800000000000085
:1008B000F0B583B00C4B9847062000210B4B9847AE
:1008C000084B074A00920193094F40252E1C094C02
:1008D0003E600120A047084B1D600120A047F7E7BC
:1008E000C61D43D4B641A13FF50700004D010000ED
:1008F000184400412D01000014440041C046C04688
:1009000070B50E4B0E4D0024ED1AAD101E1CAC42FE
:1009100004D0A300F35898470134F8E700F026F814
:10092000084B094D0024ED1AAD101E1CAC4204D03A
:10093000A300F35898470134F8E770BD7809000028
:1009400078090000780900007C0900008404000098
:10095000D4040000D4040000640400007604000005
:100960009204000068040000A0040000F8B5C0462E
:10097000F8BC08BC9E467047CD000000F8B5C046E4
:0C098000F8BC08BC9E467047A5000000B3
:04098C000100000066
:040000030000081DD4
:00000001FF
